:060000000A128A11D92E3C
:100DB20083010A128A11DD2E0630831603139F0067
:100DC200FF308500FF3086008701F501831203138F
:100DD20007100712EC2E831203130518F12EF22EC0
:100DE2000B2F7508033A0319F72EF82E0B2FFA2E44
:100DF200FA2E051CFD2EFE2EFA2EFF2EF5010314EF
:100E0200F50D0030F4000030F3000030F200003045
:100E1200F1000B2F061D0E2F0F2FF02F7508023A2F
:100E2200031D142F152FF02F0330F0007008F5006A
:100E3200F02FF02F8312031307140130F107003053
:100E420003180130F207003003180130F3070030B5
:100E520003180130F40700307402031D3A2F0030EA
:100E62007302031D3A2F27307202031D3A2F1030EE
:100E7200710203183D2F3E2F402F0716EC2E003033
:100E82007402031D4E2F0F307302031D4E2F42308A
:100E92007202031D4E2F41307102031C512F522F3B
:100EA2005F2F0030F4000030F3000030F200003019
:100EB200F1000230F0007008F500EC2E0712EC2E63
:100EC200EC2EEC2E0130F607003003180130F70744
:100ED200003003180130F807003003180130F90719
:100EE20000307902031D7F2F00307802031D7F2F0F
:100EF20009307702031D7F2FC43076020318822F38
:100F0200832F872F831203130714EC2E00307902EC
:100F1200031D952F03307802031D952F0D307702A4
:100F2200031D952F403076020318982F992F9D2F7D
:100F3200831203130710EC2E0030F9000030F80082
:100F42000030F7000030F600EC2EEC2EEC2E0130D3
:100F5200F607003003180130F7070030031801309C
:100F6200F807003003180130F90700307902031D39
:100F7200C42F00307802031DC42F9C307702031D5A
:100F8200C42F403076020318C72FC82FCD2F8312EB
:100F9200031307140716EC2E00307902031DDB2F12
:100FA20000307802031DDB2FEA307702031DDB2FAE
:100FB200603076020318DE2FDF2FE42F8312031333
:100FC20007100712EC2E0030F9000030F800003054
:100FD200F7000030F600EC2EEC2EEC2EEC2E75080D
:100FE200013A03191B2F033A0319632F013A03191C
:0E0FF200A82FEC2EEC2EEC2E0A128A110028ED
:02400E00323F3F
:00000001FF
