:0C000000830100308A0004288301022FD5
:100E04000630831603139F00FF308500FF308600F1
:100E140087018312A00107100712FE2F8312031308
:100E240005181B2F152F2008033A03191B2F1A2FFF
:100E34001D2F1C2F2D2F1F2F1F2F83120313051C53
:100E4400242F252F1E2F83120313A001A00AA10112
:100E5400A201A301A40183120313061D382F322F0C
:100E64002008023A031D382F372F3A2F392F3C2FF1
:100E74000330A000F12F831203130714A10A0319EE
:100E8400A20A0319A30A0319A40A00302402031DA9
:100E9400552F00302302031D552F27302202031D36
:100EA400552F103021020318582F592F5B2F071686
:100EB400792F0030831203132402031D6B2F0F308C
:100EC4002302031D6B2F42302202031D6B2F41307E
:100ED4002102031C6E2F6F2F762FA101A201A30103
:100EE400A4010230A000792F831203130712FE2FEE
:100EF40083120313A50A0319A60A0319A70A0319DF
:100F0400A80A00302802031D912F00302702031D78
:100F1400912F09302602031D912FC4302502031896
:100F2400942F952F972F0714B32F00308312031398
:100F34002802031DA72F03302702031DA72F0D30FE
:100F44002602031DA72F403025020318AA2FAB2F1A
:100F5400AD2F0710B32F83120313A501A601A70118
:100F6400A801FE2F83120313A50A0319A60A031965
:100F7400A70A0319A80A00302802031DCB2F00304A
:100F84002702031DCB2F9C302602031DCB2F40309C
:100F940025020318CE2FCF2FD22F07140716EF2FB9
:100FA4000030831203132802031DE22F00302702AE
:100FB400031DE22FEA302602031DE22F60302502D2
:100FC4000318E52FE62FE92F07100712EF2F8312DE
:100FD4000313A501A601A701A801FE2FFE2F83126A
:100FE40003132008013A03193D2F033A03197A2FFA
:0C0FF400013A0319B42FFE2F102F04281F
:02400E00323F3F
:00000001FF
