:060000000A128A11442ED1
:100C880083010A128A11482E0030F4000030F30064
:100C98000030F2000030F1000030F9000030F800B8
:100CA8000030F7000030F6000630831603139F006B
:100CB800FF308500FF3086008701F501831203139A
:100CC8000710871007110712692E05186C2E6D2E54
:100CD800862E7508043A0319722E732E862E752EE9
:100CE800752E051C782E792E752E7A2EF501031493
:100CF800F50D0030F4000030F3000030F200003051
:100D0800F100862E0619892E8A2E9E2E7508043A21
:100D1800031D8F2E902E9E2E922E922E051C952E00
:100D2800962E922E972E0230F0007008F5000710CC
:100D380007129E2E061DA12EA22EED2F7508033A2E
:100D4800031DA72EA82EED2F0430F0007008F50023
:100D5800ED2FED2F07140130F10700300318013093
:100D6800F207003003180130F30700300318013090
:100D7800F40700307402031DCB2E00307302031DEC
:100D8800CB2E03307202031DCB2EE83071020318FC
:100D9800CE2ECF2ED12E0716692E00307402031DD9
:100DA800DF2E0F307302031DDF2EDE307202031DAB
:100DB800DF2E81307102031CE22EE32EF02E00306C
:100DC800F4000030F3000030F2000030F10002308F
:100DD800F0007008F500692E0712692E692E692E39
:100DE8000130F607003003180130F7070030031808
:100DF8000130F807003003180130F9070030790294
:100E0800031D102F00307802031D102F09307702C0
:100E1800031D102FC43076020318132F142F172F19
:100E280087140715692E00307902031D252F00301D
:100E38007802031D252F09307702031D252FC530A1
:100E48007602031C282F292F3E2F00307902031D1C
:100E5800372F00307802031D372F0D307702031D1E
:100E6800372FAC30760203183A2F3B2F3E2F8710CE
:100E78000711692E00307902031D4C2F00307802CB
:100E8800031D4C2F0D307702031D4C2FAD30760219
:100E9800031C4F2F502F652F00307902031D5E2F42
:100EA80000307802031D5E2F11307702031D5E2F7C
:100EB800943076020318612F622F652F8714071567
:100EC800692E00307902031D732F00307802031D4C
:100ED800732F19307702031D732F65307602031CB8
:100EE800762F772F692E0030F9000030F800003097
:100EF800F7000030F6000330F0007008F500692EA6
:100F0800692E692E692E692E071087100711692E20
:100F18000130F607003003180130F70700300318D6
:100F28000130F807003003180130F9070030790262
:100F3800031DA82F00307802031DA82F093077025F
:100F4800031DA82FC43076020318AB2FAC2FAF2F88
:100F580007140716692E00307902031DBD2F0030D3
:100F68007802031DBD2F09307702031DBD2FC53040
:100F78007602031CC02FC12FD52F00307902031D24
:100F8800CF2F00307802031DCF2F0D307702031DBD
:100F9800CF2FAC3076020318D22FD32FD52F0710BE
:100FA800692E00307902031DE32F00307802031DFB
:100FB800E32F0D307702031DE32FAD307602031CBB
:100FC800E62FE72F692E0714692E692E692E692EE0
:100FD800692E7508013A0319AE2E033A0319F42E47
:100FE800013A0319882F073A03198C2F692E692EA5
:080FF800692E0A128A1100287B
:02400E00323F3F
:00000001FF
